:100000000C9448030C9465030C9465030C946503ED
:100010000C9465030C9465030C9465030C946503C0
:100020000C9465030C9465030C9400280C94D2285E
:100030000C94B1220C9465030C9465030C94650335
:100040000C9465030C9465030C9465030C94650390
:100050000C9465030C9419230C9465030C946503AC
:100060000C9465030C9465030C9465030C94650370
:100070000C9465030C9465030C9465030C94650360
:100080000C9465030C9465030C9465030C94650350
:100090000C9465030C9465030C9465030C94650340
:1000A0000C9465030C9465030C946503BD03C003B5
:1000B000C303C603C903CC03CF03F806FD06070735
:1000C000FB060007050703073708390844083B0803
:1000D0003D083F0841084308460848084A085508B3
:1000E0004C084E0850085208540857082318231883
:1000F000551855188C18311AD319311AAC18311AF1
:1001000059195919CA19311A311A2B1A661966194F
:1001100066196619661966196619661966196619E7
:1001200066196619661966196619661977198419A8
:100130008B1992199C19B81AB81ACA1ACA1AC11A74
:10014000CA1ACA1ACA1AB81AB81AC61ACA1ACA1AB7
:10015000C61A3F296629582A6629582AB229D5295C
:10016000582A2B2A3A2A07634236B79BD8A71A394E
:10017000685618AEBAAB558C1D3CB7CC5763BD6DF5
:10018000EDFD753EF6177231BF000000803F05A8F7
:100190004CCDB2D44EB93836A9020C50B9918688EC
:1001A000083CA6AAAA2ABE000000803F6572676FBD
:1001B000646F785F657A2F3033363130643566632B
:1001C0006434316636613935663861204020302E1E
:1001D000362E3237332D31362D6762346534626501
:1001E0002D6469727479000000F0A12E003100299D
:1001F00000E100E00000001E00140004001D0035B6
:1002000000AE001F001A0016001B004C002A002040
:100210000008000700060050002C0021001500090E
:100220000019004F00A800220017000A0005000076
:100230000026020153E30000002F000000E2002925
:1002400000E300000030000000007423001C000BDD
:1002500000110000002702240018000D00100052B9
:1002600000A90025000C000E0036005100280026D1
:100270000012000F00370022022B0027001300336A
:100280000038000007AA002D002E003400E500E22F
:100290000200002E0064002900E100E30000001EBF
:1002A00000140004001D003500AE001F001A0016E7
:1002B000001B004C002A0020000800070006005028
:1002C000002C0021001500090019004F00A8002291
:1002D0000017000A000500000026020100E00000EF
:1002E000002F000000E2003200E4000000300000B7
:1002F00000007423001C000B0011000000270224E2
:100300000018000D0010002F00A90025000C000EA1
:1003100000360030002800260012000F003700527F
:10032000002B0027001300330038005100AA002DD5
:10033000002E003400E500E3000000000000000093
:100340000000002A2B280000000000000000000030
:1003500000000000000029000000002C1E342021B5
:100360002224342627252E362D3738271E1F2021FC
:1003700022232425263333362E37381F040506075B
:1003800008090A0B0C0D0E0F101112131415161775
:1003900018191A1B1C1D2F3130232D350405060793
:1003A00008090A0B0C0D0E0F101112131415161755
:1003B00018191A1B1C1D2F3130354C00000000008D
:1003C000000000000000000000000000000000002D
:1003D0000000000000000000000000000101010119
:1003E0000101000101010100000000000000000007
:1003F00000000000000100010001010101010101F4
:1004000001010101010101010101010101010101DC
:1004100001010101010100000001010000000000D4
:1004200000000000000000000000000000000000CC
:10043000000000000000010101010000047F3F1FD7
:10044000643214643214783C1E1E140A056801F0EC
:1004500000B40078005A0000000000000101010112
:10046000010101010102020202020202020203036F
:10047000030303030303040404040404050505053E
:1004800005060606060607070707080808080909FB
:10049000090A0A0A0A0B0B0B0C0C0C0D0D0D0E0EA3
:1004A0000F0F0F1010111111121213131414151530
:1004B00016161717181819191A1A1B1C1C1D1D1EA1
:1004C0001F1F2020212222232425252627272829F3
:1004D0002A2B2B2C2D2E2F2F30313233343536361C
:1004E0003738393A3B3C3D3E3F4041424344464722
:1004F00048494A4B4C4D4F50515253555657585AF4
:100500005B5C5E5F606263646667696A6C6D6E7097
:100510007173747678797B7C7E8081838486888A07
:100520008B8D8F91929496989A9B9D9FA1A3A5A73E
:10053000A9ABADAFB1B3B5B7B9BBBDBFC1C4C6C838
:10054000CACCCFD1D3D6D8DADCDFE1E4E6E8EBEDF4
:10055000F0F2F5F7FAFCFF04033000000016034543
:1005600000720067006F0044006F007800200045B3
:10057000005A00000016034500720067006F004437
:10058000006F007800200045005A000000040309B5
:100590000409023B00020100A0FA09040000010363
:1005A000010100092111010001224000070581031A
:1005B00008000A09040100010300000009211101DB
:1005C00000012271000705820320000A12011001B8
:1005D00000000008EDFE0713010001020301050100
:1005E0000980A10185031601002603001A81002A53
:1005F0008300751095018100C0050C0901A10185DA
:1006000004160100269C021A01002A9C027510950E
:10061000018100C005010906A1018505050719E052
:1006200029E71500250195087501810205081901C2
:10063000290595057501910295017503910105073D
:10064000190029EF1500250195F075018102C005FB
:10065000010906A101050719E029E7150025019503
:1006600008750181029501750881010508190129A4
:10067000059505750191029501750391010507190D
:100680000029FF150026FF00950675088100C000AF
:1006900011241FBECFEFDAE0DEBFCDBF11E0A0E036
:1006A000B1E0E4EBFCE502C005900D92A43CB1077B
:1006B000D9F723E0A4ECB1E001C01D92AB39B20739
:1006C000E1F70E9422250C94582E0C94000080B370
:1006D0008C7080BB81B3836F81BB089584B1807FB0
:1006E00084B985B1807F85B98AB1837F8AB98BB19E
:1006F000837F8BB93E9846980895CF93E82F873033
:1007000090F58091000190910101892B09F049C079
:10071000CE2F64E670E080E40E94FE049093010115
:1007200080930001892BD1F464E670E082E10E949D
:1007300055059093010180930001892B79F481E0A4
:1007400090E001C0880FCA95EAF764E670E08095F2
:100750000E945505909301018093000184E690E08A
:10076000CF910C94AA0590E0FC013797E730F10592
:10077000C0F4EA5AFF4F0C94FD2D209A289811C01E
:10078000219A29980EC0229A2A980BC0239A2B9856
:1007900008C0529A5A9805C0539A5B9802C03E9A74
:1007A0004698CF910895089508950C94D403CF935B
:1007B000DF930E943C0690E090930101809300013A
:1007C0000E946E030E946703A9E1B2E025EC31E0CC
:1007D000E7E2F2E04EE04E0F11921D9280E090E0D1
:1007E000E901C80FD91F1882019686309105C1F71B
:1007F0002A5F3F4F4E13F0CFDF91CF910C947007DB
:100800000E943C0690E090930101809300010E94B9
:100810006E030E946703E7E2F2E08EE08E0F119212
:100820008E13FDCF0895CF93DF93E62FF0E0E75EC0
:10083000FD4F40814827808386E0689FF0011124A6
:10084000EB53FE4F20E030E080E061E070E050E0EC
:10085000AAE0B22F9081992319F09150908307C09C
:10086000EB01022E01C0CC0F0A94EAF78C2BEA01AF
:1008700002C0D595C795BA95E2F7C0FDA0832F5F5A
:100880003F4F31962630310521F7DF91CF91089502
:10089000CF93DF93D82F873008F040C080910001BC
:1008A00090910101892B09F042C064E670E080E478
:1008B0000E94FE049093010180930001892B11F0A6
:1008C000C0E027C064E670E083E10E945505909384
:1008D000010180930001892B99F764E670E081E4BF
:1008E0000E94FE049093010180930001892B41F73F
:1008F00084E690E00E94850597FF05C09093010172
:1009000080930001DDCFC82FC09510920101109295
:10091000000184E690E00E94AA050AC09FB1CFB111
:10092000C07FC695C6959370C92BC09501C0C0E025
:100930006D2F8C2F0E941304282F2095ED2FF0E0AF
:10094000E95DFD4F908192238C23892BDF91CF911C
:100950000895EF92FF920F931F93CF93DF938091AF
:10096000000190910101892B91F08091C4018F5F6A
:100970008093C40181110BC00E943C0690E09093CB
:10098000010180930001892B11F40E94CE0587E2BA
:10099000E82E82E0F82E0EE212E0C0E08C2F0E94DA
:1009A0007D03D7E0DC0F8D2F0E947D038C2F0E94EA
:1009B0004804F70181937F018D2F0E944804F801BC
:1009C00081938F010E946E03CF5FC73039F70E9479
:1009D0007A0781E0DF91CF911F910F91FF90EF9007
:1009E0000895E82FF0E0E95DFD4F808108950895B6
:1009F0001092B9008CE08093B8000895EF92FF92B6
:100A00000F931F93CF93DF93182FEB011092BC002D
:100A100084EA8093BC000E94E3227C019091BC0098
:100A200097FD0EC0CF3F8FEFD807C1F30E94E3229E
:100A30008E199F098C179D0788F38EEF9FEF2EC0AC
:100A40009091B900987F983041F09091B900987FCB
:100A5000903119F08FEF9FEF21C01093BB0084E815
:100A60008093BC000E94E3228C019091BC0097FD12
:100A70000CC0CF3F8FEFD807C1F30E94E322801B49
:100A8000910B8C179D0788F3D8CF8091B900887F90
:100A9000883111F08034F1F680E090E0DF91CF9161
:100AA0001F910F91FF90EF9008950F931F93CF9395
:100AB000DF93EB018093BB0084E88093BC000E942D
:100AC000E3228C019091BC0097FD0EC0CF3F8FEFC9
:100AD000D807C1F30E94E322801B910B8C179D075E
:100AE00088F38EEF9FEF0CC02091B900287F81E042
:100AF00090E0283211F480E090E091958195910981
:100B0000DF91CF911F910F9108950F931F93CF9372
:100B1000DF93EC0184E88093BC000E94E3228C0107
:100B20009091BC0097FD0EC0CF3F8FEFD807C1F367
:100B30000E94E322801B910B8C179D0788F38EEF98
:100B40009FEF03C08091BB0090E0DF91CF911F9198
:100B50000F9108950F931F93CF93DF93EC0184E9D6
:100B60008093BC000E94E3228C019091BC0094FF12
:100B70000EC0CF3F8FEFD807C1F30E94E322801B46
:100B8000910B8C179D0788F38EEF9FEF02C080E0DA
:100B900090E0DF91CF911F910F91089556985E9844
:100BA00025982D9826982E9827982F988FEF90E0CB
:100BB000909389008093880090938B0080938A00A3
:100BC00090938D0080938C00259A2D9A2FEF80E7CB
:100BD00092E0215080409040E1F700C00000269A4A
:100BE0002E9A2FEF80E792E0215080409040E1F76D
:100BF00000C00000279A2F9A2FEF80E792E0215043
:100C000080409040E1F700C0000025982D982FEF1C
:100C100080E792E0215080409040E1F700C0000062
:100C200026982E982FEF80E792E021508040904048
:100C3000E1F700C0000027982F9856985E982598F5
:100C40002D9826982E9827982F98089589EA8093B2
:100C5000800089E08093810024982C983F988AB185
:100C60008F7C8AB96E98479A8BB180638BB9769ADC
:100C70000E94CE050C94D30380E290E09093010192
:100C8000809300018091350281110EC00E94F8040A
:100C900081E0809335022FEF83ED90E32150804077
:100CA0009040E1F700C0000064E670E080E40E943C
:100CB000FE049093010180930001892B09F050C03C
:100CC00064E670E080E00E945505909301018093F6
:100CD0000001892B09F044C064E670E080E00E94C6
:100CE00055059093010180930001892BC9F564E6B5
:100CF00070E08FE30E9455059093010180930001FD
:100D0000892B71F584E690E00E94AA0564E670E004
:100D100080E40E94FE049093010180930001892BDE
:100D2000F9F464E670E08CE00E94550590930101AF
:100D300080930001892BA1F464E670E080E00E94BA
:100D400055059093010180930001892B49F464E6D5
:100D500070E08FE30E94550590930101809300019C
:100D600084E690E00E94AA05809100010895611137
:100D700008C0FC018281882321F08CEA91E00E9466
:100D80006D0780E090E00895863E2CE5920721F003
:100D9000873E9C4541F010C0FB018281882369F0A9
:100DA0000E94CF2107C0FB018281882331F081E0BE
:100DB0000E946F1080E0089581E00895CF92DF9245
:100DC000EF92FF926B017C010E94112156985E9870
:100DD00025982D9826982E9827982F9890E0FC011A
:100DE0003197E730F105A8F4E35AFF4F0C94FD2D3D
:100DF000259A2D9A0EC0259A2D9A269A2E9A09C0C8
:100E0000259A2D9A04C0259A2D9A269A2E9A279AC9
:100E10002F9AC701B601FF90EF90DF90CF90089511
:100E200081E008950C94C406CF93282F30E0F90197
:100E3000E55CFC4FC491F901E554FC4F2491222359
:100E400059F081EE0E9463168C2F0E9463168C2F3E
:100E50000E947A1781EE04C08C2F0E9463168C2F9B
:100E6000CF910C947A170F931F93CF93DF93EC01DC
:100E7000062FFE018491882359F19E012F5F3F4F79
:100E8000813041F4E901F9011491812F0E94631628
:100E9000812F0DC0823031F4E901F90184910E9463
:100EA00063160AC0833031F4E901F90184910E948C
:100EB0007A1702C00E9414072196802F8823C9F256
:100EC000EFE9FFE03197F1F700C000008150F6CF65
:100ED000DF91CF911F910F91089560E00C9433073B
:100EE0000E946121811102C00E94CF210E94D00C7A
:100EF0000C9426060C94D503282F2F7041F0822FD6
:100F000090E02A3010F44D9608950697089587E2F0
:100F100090E0089508950C948A070C948B07089527
:100F20000E94A81A0E948F072FEF84E39CE02150B3
:100F300080409040E1F700C000000C943F23FF92F6
:100F40000F931F93CF93DF938C01FC01C081D1815C
:100F500080917F02811113C08281882349F0CE01E4
:100F60000E94DE1FF82E682FCE010E94811F04C050
:100F7000CE010E94B11FF82EBE018F2D04C0CE01FC
:100F80000E94DE1FBE010E943A0AEC01B8010E94D5
:100F90001207882309F466C2B801CE010E944B0DE6
:100FA000882309F45FC2CC3CFCE5DF0741F4F8017B
:100FB0008281882309F456C20E94420E53C2CD3C5E
:100FC0008CE5D80708F01EC1C43C9CE5D90761F444
:100FD000F8018281882309F445C20E945E20827252
:100FE000E1F40E946C103EC2C53CECE5DE0708F05F
:100FF000C7C0C531FCE5DF0798F0C23CFCE5DF0760
:1010000009F48CC008F492C0F8018281882309F4A5
:1010100029C20E945E20827221F70E945E1022C2C5
:10102000C2308CE5D80708F452C0F80182818823C9
:1010300009F459C00E946121811102C00E94CF2190
:101040000E94742190E090938D0380938C03FE01A5
:10105000E350FC45E231F10530F4EC59FF4F80914B
:101060008C030C94FD2D80918C03816027C08260DD
:1010700025C0846023C0806121C080621FC080645D
:101080001DC080681BC08460886018C08E7F16C039
:101090008D7F14C08B7F12C08F7E10C08F7D0EC0DD
:1010A0008F7B0CC08F770AC08B7F877F07C087FB41
:1010B000222720F991E0922790FB87F980938C03F7
:1010C00080918C030E9478210E94A81ACBC1C1157F
:1010D0009CE5D90781F0C130DC45A9F081E080931F
:1010E0003B0280933C02C801DF91CF911F910F9189
:1010F000FF900C941007F8018281882309F4B2C193
:101100000E949007AFC1F8018281882309F4AAC127
:1011100080911E03816080931E03A4C1F801828127
:10112000882309F49FC10E94C7109CC1C631DC45C9
:10113000A9F60E945E20282FF801828140910F01BC
:1011400050911001882379F02A7A91E009F490E017
:1011500090933602911102C069E201C065E3CA01B1
:101160000E9436220AC080913602811102C069E2D3
:1011700001C065E3CA010E9441220E94AD2072C1F4
:10118000F8018281C83CFCE5DF0731F4882309F4CB
:1011900069C10E94C50F66C1C93C9CE5D907C8F466
:1011A000C63CECE5DE0731F4882309F45BC10E94FC
:1011B000970F58C1C73CDC4530F4882309F452C16D
:1011C0000E94730F4FC1882309F44CC10E94AE0FD7
:1011D00049C1CA3C9CE5D90731F4882309F442C1CE
:1011E0000E9405103FC1CB3CDC4530F4882309F454
:1011F00039C10E94E50F36C1882309F433C10E942A
:101200002D0E30C1C43DFCE5DF0791F4F801828169
:10121000882309F427C10E94240E893128F00E94F6
:10122000240E823208F4F9CE89E10E946F101AC1AF
:10123000C53D8CE5D80708F068C0F8018281C03D43
:10124000FCE5DF0771F4882309F40CC10E94240E29
:10125000893028F00E94240E8E3008F4DECE89E01A
:10126000E4CFC13D9CE5D90740F5CE3CECE5DE0777
:1012700071F4882309F4F6C00E94240E823028F00D
:101280000E94240E853008F4C8CE82E0CECFCF3C39
:10129000DC4528F4882309F4E5C081E0C6CF882323
:1012A00009F4E0C00E94240E863028F00E94240E2B
:1012B000883008F4B2CE86E0B8CFC23D9CE5D907AD
:1012C00071F4882309F4CEC00E94240E853128F0E1
:1012D0000E94240E873108F4A0CE85E1A6CFC33D3D
:1012E000DC4570F4882309F4BDC00E94240E8F30C1
:1012F00028F00E94240E843108F48FCE8FE095CF21
:10130000882309F4AFC088E190CFC83DFCE5DF0732
:1013100059F5F8018281882361F010923C020E9405
:10132000E32290933A028093390280E20E94E1170F
:1013300099C080913C02882321F080E20E94E81746
:1013400091C08091390290913A020E94EF22883C2C
:10135000910598F780E20E94E81788E20E946316E0
:1013600088E20E947A177EC0C93D8CE5D80708F054
:1013700058C0F8018281C63DFCE5DF0751F588239E
:1013800051F010923B020E94E32290933802809326
:10139000370282E0CBCF0E945E2085FF05C081E04E
:1013A00080933B0280933C0280913B0281110FC0ED
:1013B00080913702909138020E94EF22883C91057B
:1013C00030F486E20E94631686E20E947A1782E079
:1013D000B5CFC73DDC4528F4882309F443C083E238
:1013E00024CF81119ACF0E945E2081FF05C081E049
:1013F00080933B0280933C0280913C0281119DCFFF
:101400008091390290913A020E94EF22883C910526
:1014100008F093CF87E20E94631687E20E947A1752
:101420008CCFCC3DECE5DE0741F4F80182818823C6
:10143000C9F082E00E94C32515C0CD3DFCE5DF0761
:1014400039F4F8018281882369F00E94CF210AC013
:10145000CB3DDC4509F042CEF8018281882311F0B2
:1014600080E0E8CF80E0DF91CF911F910F91FF9056
:101470000895089596E0799FF001112494E5899FDD
:10148000E00DF11D1124E60FF11DEE0FFF1FE551D8
:10149000FE4F859194910895880F991FFC01E951A1
:1014A000FE4F859194910895CF93DF930E943A0A5D
:1014B0000E94190CEC01811520E59207F0F58115C9
:1014C00030E4930708F029C1883E910500F5803E7D
:1014D000910508F0AAC1883A910570F4853A910502
:1014E00008F0A4C08130910509F49FC108F450C1EF
:1014F000049708F09AC14CC18F3B910508F4A1C034
:10150000803C910508F444C1805C9109F9C08115C3
:1015100040E2940758F4C11581E0D80708F085C16E
:10152000C03FD10508F434C1D0657FC1811520E3E7
:10153000920708F0E9C09F70E3C0811535E5930775
:1015400008F044C0811544E5940708F0FDC0C115BA
:1015500082E5D80708F5C11521E5D20708F0E0C0FB
:101560008C2F837021E030E002C0220F331F8A9558
:10157000E2F73C68CE0174E0969587957A95E1F79D
:101580008370382BCF70C695C69540E2C49FE001AA
:101590001124C22BD32B49C12C2F26952695CE0181
:1015A00083709927C115D34508F0BFC040E2249F3E
:1015B00090011124C1E0D0E002C0CC0FDD1F8A955C
:1015C000E2F72C2B3D2BE901DC682FC181154AE5A0
:1015D0009407A0F4C11589E5D80708F0C4C0C11567
:1015E00026E5D20708F4B5C0C11538E5D30708F4DD
:1015F000CFC0DC2FCC27C06FD06A17C181159B45A7
:1016000008F4C6C0C1158CE5D80708F4BEC0CE01E9
:1016100090568115904208F0BBC08D2F8F710E94AB
:10162000960CDD27D0628F71D82BFFC0853A9105CB
:1016300009F4B1C0863A910509F0B0C0C2E8D0E41F
:10164000F4C0883A910509F4ACC0893A910509F4CF
:10165000ABC08A3A910509F4AAC08B3A910509F406
:10166000A9C08C3A910509F4A8C08B3B910509F4F7
:10167000A7C08C3B910509F4A6C08D3A910509F4E9
:10168000A5C0803B910509F4A4C08E3A910509F4E8
:10169000A3C08F3A910509F4A2C0813B910509F4DA
:1016A000A1C0823B910509F4A0C0833B910509F4D8
:1016B0009FC0843B910509F49EC0853B910509F4C8
:1016C0009DC0863B910509F49CC0873B910509F4B8
:1016D0009BC0883B910509F49AC0893B910509F4A8
:1016E00099C08D3B910509F498C08E3B910509F492
:1016F00097C08A3B910509F496C0C0E0D4E495C038
:101700000E944C0AEC0191C09927D3FF03C0EC0161
:10171000D86C8BC0EC01D06C88C0DF70D06A85C0FB
:10172000DC2FCC27C16FD06A80C040E2249F90019B
:101730001124C1E0D0E002C0CC0FDD1F8A95E2F792
:10174000C22BD32BDA6871C0D82FCC27C46FD06AD4
:101750006CC08C2F0E94960C8F71C82FD0E0DC2FAC
:10176000CC27D06262C08C2F8F700E94960C94E0C0
:10177000D695C7959A95E1F7CF70D0E0DC2FCC27AE
:10178000D06A8F70806EC82B50C0DD27D0664DC0E8
:10179000C0E0D0E04AC0C1E8D0E447C0C3E8D0E42C
:1017A00044C0C2EED4E441C0C9EED4E43EC0CAEEA7
:1017B000D4E43BC0C5EBD4E438C0C6EBD4E435C0B8
:1017C000C3EBD4E432C0C4EBD4E42FC0C7EBD4E401
:1017D0002CC0CCECD4E429C0CDECD4E426C0C3E8C2
:1017E000D5E423C0CAE8D5E420C0C2E9D5E41DC0D1
:1017F000C4E9D5E41AC0C1E2D6E417C0C3E2D6E416
:1018000014C0C4E2D6E411C0C5E2D6E40EC0C6E2FC
:10181000D6E40BC0C7E2D6E408C0CFE6D4E405C0E6
:10182000C0E7D4E402C0CAE2D6E4CE01DF91CF9192
:1018300008958238910549F1B0F48133910509F496
:1018400058C048F48932910509F44EC08A32910596
:1018500009F454C008958533910509F440C08933D3
:10186000910599F00895833E910529F138F4803E61
:10187000910591F0823E9105A1F00895863E910573
:10188000F9F0873E910531F1089520918C0320FDF8
:101890003AC021FD38C0089580918C0380FD35C089
:1018A00032C080918C0382FF32C080918C0384FD12
:1018B00030C083EE39C080918C0382FD28C0F5CF03
:1018C00080918C0383FF27C080918C0384FD21C00D
:1018D00087EE2AC080918C0383FD1DC0F5CF8091D7
:1018E0008C0385FD1AC01BC080918C0385FD17C039
:1018F00014C080918C0386FD14C015C080918C03A8
:1019000086FD11C00EC080EE0FC089E30DC082EECF
:101910000BC080E009C086EE07C089E205C085E300
:1019200003C08AE201C081E390E0089590918C03A6
:1019300092FF0DC0282F2871283019F4877F84600A
:1019400006C0282F2471243011F48B7F886093FF08
:101950000DC0282F2871283119F4877E846106C0B4
:10196000282F2471243111F48B7E886194FD877EA9
:101970000895CF93DF93813020E8920768F0FB0150
:101980002281222349F0EC010E94E60CCE019F77D0
:101990000E942E0D0E941B0D81E0DF91CF910895D2
:1019A0008CE090E00E94102E90E0A0E0B0E08093E8
:1019B000430390934403A0934503B09346030895D3
:1019C000609143038CE090E00C94242E0E945E20F2
:1019D00080933D020E94712080914303813071F019
:1019E00048F08230D9F08430F9F486EE0E94D9179D
:1019F00088E118C082EE0E94631616C080EE0E9435
:101A0000631681EE0E94631688E10E94D91781EE69
:101A10000E947A1780EE0E947A1706C082EE0E941A
:101A2000631687E50E94D9178FE39CE90197F1F7C8
:101A300000C00000089580914303813021F038F008
:101A4000823029F007C08CE20E94D91703C082EED1
:101A50000E947A1780913D020C946E200F931F9381
:101A6000CF93DF938C01CCE0D0E0C8010C2E02C0F4
:101A7000969587950A94E2F78F700E947C070E94E2
:101A8000D9172497CC3F8FEFD80779F7DF91CF9103
:101A90001F910F9108950F931F93CF93DF93EC0144
:101AA0008B01FB018281882319F1C23EFCE5DF072F
:101AB000C1F050F4C03EECE5DE0781F0C13EFCE52C
:101AC000DF07B1F481E010C0C33E8CE5D80759F0C0
:101AD000C43EECE5DE0761F484E006C010924303E7
:101AE00005C082E001C083E0809343030E94E00CC4
:101AF000B801CE01DF91CF911F910F910C94B90CD9
:101B0000EF92FF920F931F93CF93DF93E901662328
:101B100009F44BC0242F30E0EFEFF0E0E61BF109B1
:101B2000B901E69F9001E79F300DF69F300D11241B
:101B3000232F8B01031B11095CE3E52EF12CB70168
:101B40000E94D52DFB01BC01069FC001079F900D8F
:101B5000169F900D1124B7010E94D52DE230F1059A
:101B6000B1F040F4309779F0319711F5832F242F9D
:101B7000461B21C0E430F105A1F068F03597C1F4AF
:101B8000842F861B18C0832F262F230F14C0862F67
:101B9000830FE42F03C0E42FE61B842F432F2E2F47
:101BA0000AC0842F462F430F06C0842F242F03C062
:101BB00080E020E040E0E42FF0E0E95AFB4F449160
:101BC000E22FF0E0E95AFB4F9491E82FF0E0E95A58
:101BD000FB4FE49149839883EA83DF91CF911F9172
:101BE0000F91FF90EF90089588E090E00C94182EEC
:101BF000CF92DF92EF92FF926B017C010E94F40D75
:101C00006C157D058E059F0551F0B701A60188E092
:101C100090E0FF90EF90DF90CF900C94362EFF90E5
:101C2000EF90DF90CF900895E7E4F3E083E08083C6
:101C3000109248038FEF82838383148260817181C5
:101C4000828193810C94F80D8091470380FF03C03B
:101C500086958F73089580E0089580914B0390E0FE
:101C600001968430910514F083E090E080934B035B
:101C700060914703709148038091490390914A0312
:101C80000C94F80D80914B0390E0019797FF02C0F0
:101C900080E090E08430910514F083E090E0809340
:101CA0004B036091470370914803809149039091E1
:101CB0004A030C94F80D8091470380FF06C06FE043
:101CC00070E08CE493E00C94831480E090E0FC01DD
:101CD000E45BFC4F11821082128204968C339105D2
:101CE000B1F7EDCF9091470390FF0FC020E030E0B7
:101CF000F901E45BFC4F8183608342832C5F3F4F9B
:101D00002C333105A9F70C945B0E0895CF93DF9324
:101D100000D000D0CDB7DEB72091470320FF0AC026
:101D20009E012F5F3F4F0E94800D4B8169818A8108
:101D30000E94720E0F900F900F900F90DF91CF9135
:101D400008955F926F927F928F929F92AF92BF920F
:101D5000CF92DF92EF92FF920F931F93CF93DF9377
:101D600000D000D0CDB7DEB78C01E62EF42E522E77
:101D70008091470380FF89C0982F9E77923061F44D
:101D80009E012F5F3F4FC8010E94800D4B816981EA
:101D90008A810E94720E59C0E82FE695EF739EE388
:101DA0009E0F9F73943018F4F0904A034EC09AE34C
:101DB0009E0F9F73993068F4881F8827881F909121
:101DC0004803292F220F022F082B97FB112710F908
:101DD0003CC087E28E0F8F738A30B8F5F0E07997B8
:101DE000E0FD02C021E001C02FEFEE7FE35BFB4F7F
:101DF000859194916FE070E00E94D52D26034001FB
:101E0000279F900C1124580188E9A81A8EEFB80A70
:101E10008CE4C82E83E0D82E98E6692E772473943C
:101E2000C501B3010E94D52D96014F2D6E2D0E9444
:101E3000800DA80CB91C84E0C80ED11C88E8C81617
:101E400083E0D80669F70E945B0E8091470300FB90
:101E500087F980934703902F969580914803807867
:101E6000892B10FB87F980934803E0924903F09295
:101E70004A03552051F060914703709148038091C7
:101E8000490390914A030E94F80D0F900F900F9014
:101E90000F90DF91CF911F910F91FF90EF90DF9006
:101EA000CF90BF90AF909F908F907F906F905F90FA
:101EB0000895282FE7E4F3E09081991F9927991F4F
:101EC00030914803832F880F482F492B37FB552724
:101ED00050F9CA010C9668E671E00E94E92D438131
:101EE00062810C94A10E81E00C94590F282F9091DF
:101EF0004703991F9927991F30914803832F880F13
:101F0000482F492B37FB552750F9CA014C30510552
:101F10001CF4845A9E4F01C00C9768E671E00E9441
:101F2000E92D40914A03609149030C94A10E81E090
:101F30000C94760FE7E4F3E03081331F3327331F2F
:101F400090914803592F550F97FB992790F9282F07
:101F500043816FEF852F832B0C94A10E81E00C94AD
:101F60009A0FE7E4F3E03081331F3327331F90915A
:101F70004803592F550F97FB992790F9282F438134
:101F800060E0852F832B0C94A10E81E00C94B10F9F
:101F900040914A03242F30E0243F310514F4445F7C
:101FA00001C04FEF30914703331F3327331F909108
:101FB0004803592F550F97FB992790F9282F6091C7
:101FC0004903852F832B0C94A10E81E00C94C80F3C
:101FD00040914A03242F30E02C30310514F04C504E
:101FE00001C040E030914703331F3327331F9091E6
:101FF0004803592F550F97FB992790F9282F609187
:102000004903852F832B0C94A10E81E00C94E80FDB
:1020100020E00C94A10ECF939091470390FF40C015
:102020009178811102C0926007C0853210F09864E7
:1020300003C08F73880F982B90934703662351F04A
:1020400060914703709148038091490390914A033E
:102050000E94F80DC09147036C2F66956F7370E076
:102060004BE050E084E091E00E94032E892B19F0B0
:1020700010925B0203C081E080935B02CC1FCC27EF
:10208000CC1F90914803892F880F97FB992790F9CF
:1020900040914A03609149038C2BCF910C94081016
:1020A000CF910895682F9091470396959F7381E093
:1020B000890F853208F081E00C940B1081E00C94BC
:1020C0005210682F9091470396959F738FEF890F59
:1020D00009F484E20C940B1081E00C94611061E02F
:1020E0000C940B10E7E4F3E0808181608083869597
:1020F0008F730C946F1060E00C940B1080911E0392
:10210000816080931E030E946121811104C00E949E
:10211000CF210E94140E0E94F40D60934703709328
:1021200048038093490390934A036E7761F40E94B9
:10213000140E0E94F40D609347037093480380933C
:10214000490390934A0381E080935B0280914703A7
:1021500080FF04C086958F730C947B100895E7E48C
:10216000F3E080818E7F80836081718182819381A1
:102170000E94F80D10925B022FEF80E792E0215051
:1021800080409040E1F700C000000C945B0E80910D
:10219000470380FD0C94AF100C947210CF93C82F9E
:1021A0008091590290915A020E94EF22EC2FF0E0A8
:1021B000E75BFB4FE491F0E08E179F0708F443C004
:1021C0000E94E32290935A02809359026091580230
:1021D00070E080E090E00E94D62B20E030E04FE7F6
:1021E00053E40E94F92A2BED3FE049E450E40E94B9
:1021F000FF2C0E946C2D0E94732B2BE43AE34EE2DD
:102200005FE30E948C2A20EF3BEF48ED52E40E94EE
:10221000FF2C0E94A52B462F80914703881F8827FB
:10222000881F90914803292F220F97FB992790F937
:1022300060914903822B0E94860E8091580290E0A3
:10224000019680935802CF910895CF93C82F809123
:102250005602909157020E94EF22EC2FF0E0EA5BC9
:10226000FB4FE491F0E08E179F07E8F00E94E32215
:10227000909357028093560240914A03609149031C
:1022800080915402909155020E94860E80915402D2
:1022900090915502019668E671E00E94D52D9093C9
:1022A000550280935402CF910895CF92DF92FF920E
:1022B0000F931F93CF93DF93F82E8091520290914A
:1022C00053020E94EF22EF2DE695F0E0ED5BFB4F0D
:1022D000E491F0E08E179F07E8F10E94E3229093CB
:1022E0005302809352020CE413E0C0E0D0E088E691
:1022F000C82EDD24D39480915002909151028C0F0E
:102300009D1FB6010E94D52D980140914A0360910E
:1023100049030E94800D68960C5F1F4FC83681E00C
:10232000D80749F70E945B0E20915002309151026C
:10233000F0FE0AC0C9010196BE010E94D52D9093FE
:1023400051028093500206C021503109309351024E
:1023500020935002DF91CF911F910F91FF90DF905A
:10236000CF900895AF92BF92CF92DF92EF92FF92FB
:102370000F931F93CF93DF93C82F80FF02C01FEFEF
:1023800001C011E080914E0290914F020E94EF2215
:10239000C695EC2FF0E0E05CFB4FE491F0E08E1787
:1023A0009F0708F466C00E94E32290934F02809337
:1023B0004E022CE4C22E23E0D22E3EE4E32E33E084
:1023C000F32EC0E0D0E0F70131971082F6011082C1
:1023D000F701108294E0A92EB12C00E080914D020B
:1023E000800F87FD815F082E000C990BC817D90755
:1023F000E9F480914A038A9DA0018B9D500D112420
:10240000559547955595479580914703881F88278F
:10241000881F90914803592F550F97FB992790F9E2
:10242000960160914903852B0E94800D010FF1E018
:10243000AF1AB10899F6219684E0C80ED11CE4E0E9
:10244000EE0EF11CCF30D10509F0BDCF0E945B0E1E
:1024500080914D02113031F4811102C08EE007C02D
:10246000815005C090E00196BE010E94E92D809345
:102470004D02DF91CF911F910F91FF90EF90DF9070
:10248000CF90BF90AF9008950F931F93CF93DF939A
:10249000C82F80914B0290914C020E94EF22EC2FAA
:1024A000F0E0E35CFB4FE491F0E08E179F0708F447
:1024B00064C00E94E32290934C0280934B0280E020
:1024C00090E0FC01E45BFC4F1182108212820496C2
:1024D0008C339105B1F7C0E0D0E00FE010E0CE0101
:1024E000B8010E94E92DFC0180914A02082E000CDF
:1024F000990BEE0FFF1FEE0FFF1FC817D907FCF057
:1025000080910301082E000C990B8C179D07BCF0DD
:102510009F01245B3C4F80914703881F8827881FB9
:1025200090914803592F550F97FB992790F94091A7
:102530004A0360914903852B0E94800D05C0E45B2E
:10254000FC4F1182108212822196CF30D10539F6CC
:102550000E945B0E8091020190914A02980F909325
:102560004A0220910301280F20930301121614F44C
:102570009E301CF0819580930201DF91CF911F91D5
:102580000F910895EF92FF920F931F93CF93DF93D4
:1025900080914802909149020E94EF22883E934028
:1025A000D0F10E94E3229093490280934802C091A7
:1025B0004602D09147022196C170DD27D093470291
:1025C000C09346028CE4E82E83E0F82E10E008E782
:1025D000812F8695FE01E80FF11DCF0181709927AB
:1025E000970140914A0360914903FC010E9FC0018D
:1025F0000F9F900D11240E94800D1F5FF4E0EF0EDD
:10260000F11C1F3029F7DF91CF911F910F91FF909F
:10261000EF900C945B0EDF91CF911F910F91FF9083
:10262000EF900895CF93DF9300D000D0CDB7DEB701
:1026300080914402909145020E94EF22EBE3F4E086
:102640002591349182179307C0F180914302811143
:102650000CC09E012F5F3F4F4FEF6FEF80E090E087
:102660000E94800D8A81809343020E94E32290930E
:1026700045028093440280914202813051F028F05B
:10268000823061F4409143020AC08091430240E0ED
:1026900007C06091430240E080E003C040E080E07A
:1026A00060E00E94720E8091420290E0019663E029
:1026B00070E00E94E92D809342020F900F900F90DE
:1026C0000F90DF91CF9108950F931F93CF93DF93D6
:1026D00080914002909141020E94EF22843F9140FC
:1026E00008F448C00E94E322909341028093400284
:1026F000CCE4D3E000E010E020913E0230913F02B4
:102700008091470390914803073011051CF4232B57
:1027100079F002C0232B61F4881F8827881F592F66
:10272000550F97FB992790F99E0140914A030AC0E3
:10273000881F8827881F592F550F97FB992790F9D5
:102740009E0140E060914903852B0E94800D0F5F40
:102750001F4F24960F30110579F60E945B0E809171
:102760003E0290913F0201968170992790933F021B
:1027700080933E02DF91CF911F910F910895809138
:102780005B028823D9F190914703892F86958F7337
:102790002EE3280F2F73243018F482500C94CE109F
:1027A0002AE3280F2F73233018F486500C94251138
:1027B00027E3280F2F73263018F489500C945511F5
:1027C00021E3280F2F73263018F48F500C94B21188
:1027D0002BE2280F2F73233018F485510C944412E8
:1027E000892F8E77803311F40C94C212863411F441
:1027F0000C941213883411F40C94641308958823F4
:1028000019F05198599A02C0519A59985098589A6B
:1028100095E09A95F1F70000509A589895E09A95AE
:10282000F1F70000882311F0519A599885E08A95B4
:10283000F1F7000008958BB18C7F8BB95098589AAE
:102840005198599A85E08A95F1F7000008958AB168
:102850008C7F8AB985E08A95F1F70000519A5998E2
:1028600085E08A95F1F70000509A589885E08A959E
:10287000F1F7000008955098589A85E08A95F1F78D
:1028800000005198599A85E08A95F1F70000089563
:10289000CF93DF93D82FC8E08D2F80780E94FF134D
:1028A000DD0FC150C9F780E00E94FF1385E08A95D3
:1028B000F1F7000085E08A95F1F7000080E0DF91F4
:1028C000CF9108952BB1342F309523233BB1432B67
:1028D0003FB7F894FC01680F791FE617F70789F0F6
:1028E000819198E04BB9000000C087FF2BB9880F99
:1028F000000000C000C000C02BB900C09A9591F73D
:10290000ECCF3FBF0895AF92BF92CF92DF92EF928C
:10291000FF920F931F93CF93DF938C01EB01CFB600
:10292000D090BC00F8948091BC008B7F8093BC0059
:102930000E941B140E94271484E80E944814CC0FA4
:10294000DD1FCC0FDD1F78015801AC0EBD1EEA144F
:10295000FB0431F0F70181917F010E944814F7CF09
:102960000E943B14CFBED092BC00579A40E8BE01F3
:10297000C801DF91CF911F910F91FF90EF90DF90F1
:10298000CF90BF90AF900C946214909361028093AB
:1029900060020895E0916002F0916102309721F0A9
:1029A0000190F081E02D099480E00895E0916002AB
:1029B000F0916102309799F020911B01222359F088
:1029C00020918C0327FF07C0DC012C9111962C93DA
:1029D000119725E02C930280F381E02D099408954E
:1029E00020915E0230915F028217930771F09093FD
:1029F0005F0280935E02E0916002F0916102309785
:102A000021F00680F781E02D0994089520915C0261
:102A100030915D028217930771F090935D0280936D
:102A20005C02E0916002F0916102309721F0008435
:102A3000F185E02D0994089585B7806885BF85B735
:102A4000806885BF089508950E941C150C94231575
:102A500081E008950E94DA220E94D7030E94712328
:102A60000C947E10CF92DF92EF92FF920F931F9300
:102A7000CF93DF93CDB7DEB72B970FB6F894DEBFB9
:102A80000FBECDBF0E94A9040E942815811111C05C
:102A90008FEF89838A831B820E94E3228160782FD3
:102AA0009D838C8349815A816B818D810E9414168C
:102AB00056C083E6C82E82E0D82E00E010E0E02E5B
:102AC000802F0E94F104F60141916F01F42EF82647
:102AD00031F40F5F1F4F0E30110589F7D9CF909158
:102AE0001E0391FF04C08B870E94F7048B8520E0B2
:102AF00030E04F2D50E0922FBA01022E02C07595A2
:102B000067950A94E2F760FF24C02E83EF8221E0EC
:102B100030E0690102C0CC0CDD1C9A95E2F790E030
:102B20008C219D21892B09F420E028870E94E32233
:102B30008160782F9A8789874E815F8168858A8531
:102B40000E941416F801ED59FD4F8081C826C082FD
:102B500006C02F5F3F4F2630310569F6BACF10917E
:102B600062020E94CA141817A1F00E94CA1480932E
:102B700062022B960FB6F894DEBF0FBECDBFDF9179
:102B8000CF911F910F91FF90EF90DF90CF900C9419
:102B90008D072B960FB6F894DEBF0FBECDBFDF9129
:102BA000CF911F910F91FF90EF90DF90CF900895FC
:102BB000DC0111962C9111978C91682F70E041E007
:102BC00050E001C0440F8A95EAF712968C91129753
:102BD00030E0882329F0809181028823E9F006C043
:102BE000F901EF58FD4F90819423B1F086E0829F68
:102BF000F001839FF00D1124E60FF71FEE0FFF1F6A
:102C0000E45EFE4F808191818D939C93F901EF5892
:102C1000FD4F8081482B06C0F901EF58FD4F4095CC
:102C20008081482340830895CF93DF93CDB7DEB7EB
:102C30002B970FB6F894DEBF0FBECDBF942F4F83F6
:102C4000252F588769877A878B874A855B85452B2F
:102C500021F02F3F09F59F3FF9F4DE01119686E040
:102C6000FD0111928A95E9F785E0FE013796019002
:102C70000D928A95E1F749815A816B817C818D8122
:102C80009E810E94521D2B960FB6F894DEBF0FBE98
:102C9000CDBFDF91CF910895CE0107960E94D81540
:102CA000DCCFFC01808191810E941F2092959F7052
:102CB000963041F48091810291E0892780938102CE
:102CC000909380020895882309F413C1682F8238F5
:102CD000C1F40E94CA1481FD0CC169E380910F0107
:102CE000909110010E9436220E94AD202FEF81EEBC
:102CF00094E0215080409040E1F700C0000069E37B
:102D000019C08338F9F40E94CA1480FDF2C063E54B
:102D100080910F01909110010E9436220E94AD20F7
:102D20002FEF81EE94E0215080409040E1F700C009
:102D3000000063E580910F01909110010E944122F3
:102D40000C94AD208438C1F40E94CA1482FDD1C015
:102D500067E480910F01909110010E9436220E9439
:102D6000AD202FEF81EE94E0215080409040E1F7BC
:102D700000C0000067E4DECF8CEF860F813A38F4A4
:102D800080910F01909110010E943622D9CF80E2EC
:102D9000860F883048F4677081E001C0880F6A951B
:102DA000EAF70E946120CCCF8BE5860F833070F468
:102DB000653A29F0663A31F083E890E005C081E891
:102DC00090E002C082E890E00C94F01488E5860F51
:102DD000873108F08EC0683A09F445C0693A09F4B1
:102DE00045C06A3A09F445C06B3A09F445C06C3AEB
:102DF00009F445C06B3B09F445C06C3B09F445C080
:102E00006D3A09F445C0603B09F445C06E3A09F4D7
:102E100045C06F3A09F445C0613B09F445C0623BC7
:102E200009F445C0633B09F445C0643B09F445C05F
:102E3000653B09F445C0663B09F445C0673B09F4AE
:102E400045C0683B09F445C0693B09F445C06D3B8A
:102E500009F445C06E3B09F445C06A3B09F445C01E
:102E600080E090E044C082EE90E041C089EE90E0C6
:102E70003EC08AEE90E03BC085EB90E038C086EB28
:102E800090E035C083EB90E032C084EB90E02FC03F
:102E900087EB90E02CC08CEC90E029C08DEC90E0AA
:102EA00026C083E891E023C08AE891E020C082E94F
:102EB00091E01DC084E991E01AC081E292E017C060
:102EC00083E292E014C084E292E011C085E292E0D5
:102ED0000EC086E292E00BC087E292E008C08FE667
:102EE00090E005C080E790E002C08AE292E00C9496
:102EF00006150895882309F45BC0682F823879F499
:102F00000E94CA1481FF54C069E380910F0190911F
:102F100010010E9436220E94AD2069E310C0833860
:102F2000B1F40E94CA1480FF43C063E580910F0191
:102F3000909110010E9436220E94AD2063E580919D
:102F40000F01909110010E9441220C94AD20843811
:102F500079F40E94CA1482FF2BC067E480910F01AC
:102F6000909110010E9436220E94AD2067E4E7CFC5
:102F70008CEF860F813A18F380E2860F883048F490
:102F8000677081E001C0880F6A95EAF70E946720A8
:102F9000DCCF8BE5860F833020F480E090E00C944A
:102FA000F014685A673120F480E090E00C94061524
:102FB0000895CF93C82F0E9463168C2FCF910C9445
:102FC0007A17882321F00E9461200C94AD20089587
:102FD000882321F00E9467200C94AD2008958F92E1
:102FE0009F92AF92BF92DF92EF92FF920F931F9347
:102FF000CF93DF937C01D62FC72FFC01058102956B
:103000000F70128111110E9481200E945720882385
:1030100079F0112369F080E28D0F883048F082E06A
:103020000E94F8200E94572091E0D82ED92601C096
:10303000D12CAC2EA2948FE0A822B12CF501EA5835
:10304000FF4F0C94FD2D8C2F807FCF70882311F0C3
:10305000C295C07F112399F0CC2309F486C180E288
:103060008D0F883010F0D11104C08C2F0E94612088
:1030700003C08C2F0E9474200E94AD2076C18D2F3A
:103080000E947A17CC2309F4ECC180E28D0F8830BE
:1030900010F0D11104C08C2F0E94672003C08C2F28
:1030A0000E947A200E94AD20DCC18C2F807FCF70DF
:1030B000803211F0C295C07FDD2319F0D130C9F004
:1030C00021C0112371F0002341F0013031F40E943E
:1030D00094208C2B0E949A20C4C10E9494208C2B97
:1030E000FDC0002319F0013009F4BBC10E94A320E8
:1030F00011C0112321F0023008F0B3C107C0011143
:10310000B0C108C0112321F001112FC18C2FE6C0DE
:1031100001113CC18C2FE8C08C2F86958695837059
:1031200090E0009719F0019761F09BC1112321F005
:103130008D2F9C2F937002C080E090E00E94F014CD
:10314000A0C1112321F08D2F9C2F937002C080E02D
:1031500090E00E94061595C18C2F837009F050C035
:1031600011118BC18D2F829586958770880F880FDE
:103170009D2F9F70892E912CA12CB12C082E04C05C
:10318000880C991CAA1CBB1C0A94D2F7D4FF14C04B
:103190000FE010E020E030E0B901A80104C0440FC6
:1031A000551F661F771F8A95D2F7CB01BA0160952C
:1031B00070958095909503C060E070E0CB01C69556
:1031C000C695C370D0E0C230D10561F0C330D105DF
:1031D00081F0682979298A299B29219771F00E9419
:1031E000971E4BC1682979298A299B290E94A91E0B
:1031F00044C10E94971EC501B4010E94851E3DC1B5
:10320000112319F08C2F817001C08695882309F451
:1032100034C18D2F829586958770880F880F9D2FDA
:103220009F70892E912CA12CB12C082E04C0880CE3
:10323000991CAA1CBB1C0A94D2F7D4FF14C00FE03F
:1032400010E020E030E0B901A80104C0440F551F90
:10325000661F771F8A95D2F7CB01BA0160957095EA
:103260008095909503C060E070E0CB01C695C6954F
:10327000C3704C2F50E04230510569F04330510586
:1032800089F0682979298A299B294130510571F0F3
:103290000E945C1FF2C0682979298A299B290E9413
:1032A0006E1FEBC00E945C1FC501B4010E944A1F43
:1032B000E4C08D2F90E0FC01E05EF109E531F105FD
:1032C00008F04FC0EA57FF4F0C94FD2DDF708C2F94
:1032D0008F71112331F00E94E31E8D2F0E94E117A0
:1032E000C0C00E94041F8D2F0E94E817BAC011238E
:1032F00039F00111B6C08C2F8F710E94291FB1C007
:10330000023008F0AEC0F7CF112339F08C2F8F7147
:103310000E94E31EA6C01123C9F38C2F8F710E9457
:10332000041F9FC0112329F08C2F8F710E94CE1E85
:1033300098C00E94C91E95C0112349F0CF718C2FEF
:103340000E94E31E63E08C2F0E94E3208AC081E08C
:103350000E94F820023008F484C082E00E94F82025
:1033600080C0112331F0002389F28D2F0E94631653
:1033700078C0002391F2D93349F45FEF67EE73E030
:10338000515060407040E1F700C000008D2F0E9456
:103390007A1767C04C2F4F706D2FC7010E94B70678
:1033A0000E94F61D6EC0D23FB1F028F4D03F49F024
:1033B000D13FF9F028C0D43FB9F058F0D53F71F0B3
:1033C00022C0112309F447C09091810281E089272E
:1033D00008C081E01827109381023DC011113BC045
:1033E00081E08093810237C0111135C010928102B3
:1033F00032C0112329F080918002882329F329C04B
:10340000002311F328C0809180020023C1F088239B
:1034100041F09091810281E089278093810210928E
:1034200080028D2F112319F00E94631614C00E9490
:103430007A1786E0F70111928A95E9F70CC0882384
:1034400051F0111108C09091810281E08927809389
:103450008102109280024C2F4F706D2FC7010E9485
:10346000390AF8E0AF16B10441F05CF04AE0A41A62
:10347000B10852E0A516B10420F40E94CA140E94BB
:103480008D07DD20E1F00E94532080FD18C0F70178
:1034900012820E944D200E94E31EC7010E946B1AF7
:1034A0000E944D20DF91CF911F910F91FF90EF90DF
:1034B000DF90BF90AF909F908F900C94041FDF918E
:1034C000CF911F910F91FF90EF90DF90BF90AF9041
:1034D0009F908F9008950F931F93CF93DF93EC01EC
:1034E000888199812B813C81232BB9F09F3F11F476
:1034F0008F3F99F0CE010E949F07882371F0688169
:1035000079818A810E942A208C010E94801F0E945A
:10351000821EB801CE010E94EF17DF91CF911F915B
:103520000F9108950E9481200E9491200E94AD2059
:1035300080E090E00E94F01480E090E00C9406158A
:1035400080910F01909110010E944C220C94921ACC
:103550000E9471200C94A01AE92FE295EF70F0E020
:103560003297EE30F105B0F4E556FF4F0C94FD2D87
:10357000803F91F018F4803E68F40EC0843F51F40F
:103580000BC0803E48F0813F29F406C093FB88279A
:1035900080F9089580E0089581E008950E941F2039
:1035A0000E94AC1A0895CF93DF9300D000D01F92F1
:1035B000CDB7DEB70F900F900F900F900F90DF9167
:1035C000CF910895CF93DF9300D000D000D0CDB736
:1035D000DEB726960FB6F894DEBF0FBECDBFDF91E3
:1035E000CF9108951F93CF93DF93C091820216E08D
:1035F00080918302C81799F0D0E01C9FF0011D9FB5
:10360000F00D1124EC57FD4F40815181628173818F
:10361000848195810E94E21A2196C770E9CFDF91DB
:10362000CF911F9108954091B4025091B5026091DD
:10363000B6027091B7028091B8029091B9020C94D1
:10364000E21A8091B90282958F7009F054C080917E
:10365000B602882309F44FC080918202A0918302B0
:103660006091B4027091B5024091B7025091B802D6
:10367000B6E08A1709F43FC090E041155105C1F149
:103680007F3F11F46F3FA1F1B89FF001B99FF00D9A
:103690001124EC57FD4F218172132AC0208162133F
:1036A00027C02281211124C02381348124173507AA
:1036B00010F421503109241B350B283C3105C0F48E
:1036C0002091B9022F7020612093B90226E0289F33
:1036D000F001299FF00D1124E757FD4F80818F7075
:1036E0008061808384EB92E00E946B1A0C94F21A42
:1036F00001968770BECF0895CF92DF92EF92FF922E
:103700000F931F93CF93DF93CDB7DEB762970FB6BA
:10371000F894DEBF0FBECDBF8C0185E0F801DE015D
:103720001D9601900D928A95E1F7D8014C91119662
:103730005C91119712966C9112971396CD90DC9034
:1037400014973091B4027091B5028091B7029091B4
:10375000B802009709F46BC17F3F19F43F3F09F4A9
:1037600066C1E090B602EE2009F4C0C02091B90213
:10377000C816D90628F0F601E81BF90BCF0104C0E2
:10378000809590958C0D9D1DFF24F394883C9105A8
:1037900078F0F12C207F09F0C6C07C2DD98AC88A28
:1037A00089890E94D31A84EB92E00E946B1AB1C0FF
:1037B000822F807F09F046C0751314C0341312C0E5
:1037C000611110C02F7020612093B9020E94131B59
:1037D00084EB92E00E946B1A8091B902D801159691
:1037E0008C932EC0CD2819F15F3F11F44F3FF9F0B3
:1037F000F62E61111CC0809182022091830236E076
:10380000821709F45AC090E0389FF001399FF00DFB
:103810001124EC57FD4F7181571306C07081471377
:1038200003C07281711103C001968770E9CFF62E33
:10383000662309F427C18091B90281608093B9029F
:10384000F12C20C1751308C0341306C0611104C0E7
:103850008091B902D801C3C04D875E878D859E8552
:103860006A8B0E94CE1A6A898823E1F16623D1F11E
:103870002091B902822F82958F7090E0029774F0A8
:103880008091B4029091B50298878F831986DB8668
:10389000CA862C87CE0107960E946B1A86E0F80133
:1038A000A4EBB2E001900D928A95E1F70E94211BF2
:1038B0000E94131BFF24F394E5C04D875E878D851E
:1038C0009E850E941F20292F22952F7030E02230E4
:1038D00031050CF0CBC09F7009F0C5C0805E883008
:1038E00008F4D0C0C8010E946B1AE4CFC816D906EC
:1038F00008F453C0F601E81BF90BCF01883C910591
:1039000008F450C0F12C7C2DD98AC88A89890E947C
:10391000D31AE4EBF2E086E0DF011D928A95E9F725
:103920000E94131BAFC0751314C0341312C0611171
:1039300010C08091B902F8018583C8010E946B1AFA
:1039400086E0E4EBF2E0DF011D928A95E9F7FE2CB8
:1039500099C04D875E878D859E856A8B0E94CE1AA1
:103960006A89882309F4BECF662309F4BBCF20916E
:10397000B902822F82958F7090E002970CF48ECF5F
:103980008091B4029091B5029A8389831B82DD8273
:10399000CC822E83CE0101967FCF809590958C0DA1
:1039A0009D1DACCFF62E662309F49CCF75132EC057
:1039B00034132CC02091B90220FD1FC0822F8295A4
:1039C0008F70D9F0D80115962C9315978F3049F048
:1039D0008F5F982F9295907F822F8F70892B1596ED
:1039E0008C93C8010E946B1A86E0F801A4EBB2E048
:1039F00001900D928A95E1F793CF86E0F801A4EB50
:103A0000B2E001900D928A95E1F73CC04D875E8748
:103A10008D859E850E94CE1A811140CF8091B9027A
:103A200081608093B902C8010E946B1A2BC0662383
:103A300009F458CF4D875E878D859E850E94CE1AEA
:103A4000F82E882309F44ECF86E0F801A4EBB2E00B
:103A500001900D928A95E1F784EB92E00E94511655
:103A60000E94211B5DCF811139CF0CC0243031055C
:103A70000CF038CF9F7009F431CFF8019581907F19
:103A800009F02CCF8F2D62960FB6F894DEBF0FBED3
:103A9000CDBFDF91CF911F910F91FF90EF90DF90FD
:103AA000CF9008951F93CF93DF93CDB7DEB72C97B8
:103AB0000FB6F894DEBF0FBECDBF4F83588769871E
:103AC0007A878B879C87CE0107960E947C1B882370
:103AD00069F08F8198852A853B85232BF1F19F3FE3
:103AE00009F063C08F3F09F060C037C086E0FE0177
:103AF0003796DE01119601900D928A95E1F76F815C
:103B00007885EA85FB85309741F17F3F11F46F3F5F
:103B100021F12091830230E0C90101968770992735
:103B20004091820250E08417950709F447C06983E9
:103B30007A83FD83EC8396E0929FD001939FB00D32
:103B40001124AC57BD4FFE01319601900D929A950C
:103B5000E1F7809383020E94F21A16E080918202BC
:103B6000909183028917C1F1189FC00111248C57CD
:103B70009D4F0E947C1B882379F1E09182021E9F59
:103B8000F0011124EC57FD4F408151816281738116
:103B9000848195810E94E21A8091820290E00196D0
:103BA0008770992780938202D9CF4F815885698584
:103BB0007A858B859C850E94E21ACFCF0E94A81A35
:103BC0001092830210928202E4EBF2E086E0DF01C1
:103BD0001D928A95E9F7C1CF2C960FB6F894DEBFF7
:103BE0000FBECDBFDF91CF911F910895EF92FF924D
:103BF0000F931F93CF93DF938C01892B09F46CC033
:103C0000F12CEE24E394E8012196F80184918437A5
:103C100040F4843008F051C0813081F0823019F1D5
:103C20005BC0853709F444C0A8F19CE7980F903732
:103C300008F052C08F770E947A1741C00E5F1F4F65
:103C4000FE01C49180E28C0F883048F4C7708E2D3D
:103C500001C0880FCA95EAF70E94842014C08C2FF7
:103C60000E9463162DC00E5F1F4FFE01C49180E2BB
:103C70008C0F883058F4C7708E2D01C0880FCA95FC
:103C8000EAF70E948A200E94AD201AC08C2F0E9461
:103C90007A1716C00E5F1F4FFE01C491CC2381F02E
:103CA0008FE99FE00197F1F700C00000C150F6CF07
:103CB0000E5F1F4FFE01F49003C00E9463168E0139
:103CC0008F2D882309F49FCFEFE9FFE03197F1F7BB
:103CD00000C000008150F5CFDF91CF911F910F916F
:103CE000FF90EF90089508950C94731E0E94741E27
:103CF0006093F5027093F6028093F7029093F802B6
:103D00000C94921A08950C94761E0F931F930091B1
:103D1000F5021091F6022091F7023091F802602B23
:103D2000712B822B932B1F910F910C94761E0F9366
:103D30001F930091F5021091F6022091F702309145
:103D4000F80260237123822393231F910F910C9417
:103D5000761E0F931F930091F5021091F6022091A9
:103D6000F7023091F80260277127822793271F916D
:103D70000F910C94761E0C94DE060E94BB1E60937D
:103D8000F1027093F2028093F3029093F4020C9488
:103D9000921A60E070E0CB010C94BD1E0F931F934C
:103DA00041E050E060E070E08A019B0104C0000F38
:103DB000111F221F331F8A95D2F7C901B8011F9125
:103DC0000F910C94BD1E0F931F9341E050E060E0F3
:103DD00070E004C0440F551F661F771F8A95D2F705
:103DE0008091F1029091F202A091F302B091F4025D
:103DF0008A019B01082B192B2A2B3B2BC901B801E7
:103E00001F910F910C94BD1E0F931F9341E050E042
:103E100060E070E004C0440F551F661F771F8A954D
:103E2000D2F740955095609570958091F1029091F0
:103E3000F202A091F302B091F4028A019B010823DF
:103E400019232A233B23C901B8011F910F910C9418
:103E5000BD1E0F931F9341E050E060E070E004C08E
:103E6000440F551F661F771F8A95D2F78091F10284
:103E70009091F202A091F302B091F4028A019B01A9
:103E8000082719272A273B27C901B8011F910F913D
:103E90000C94BD1E0F931F930091F1021091F2023A
:103EA0002091F3023091F402602B712B822B932B23
:103EB0001F910F910C94BD1E0F931F930091F1025F
:103EC0001091F2022091F3023091F40260237123E9
:103ED000822393231F910F910C94BD1E0F931F9368
:103EE0000091F1021091F2022091F3023091F4025C
:103EF00060277127822793271F910F910C94BD1E75
:103F00000895292F220F920F990F890FA82FA69598
:103F1000A695A695877051E001C0550F8A95EAF7DE
:103F200085E0A89FD001112420E030E070E0F90185
:103F3000EA0FFB1FE654FD4F4081CB01022E02C069
:103F4000969587950A94E2F7817099278195842741
:103F50008523842780832F5F3F4F2530310539F734
:103F60000895292F220F920F990F890F682F6695B8
:103F700066956695982F977085E0689FB00111242B
:103F800040E050E080E0FA01E60FF71FE654FD4FF5
:103F9000208130E0092E02C0369527950A94E2F779
:103FA00021703327042E01C0220F0A94EAF7822BD6
:103FB0004F5F5F4F4530510531F70895BF92CF9263
:103FC000DF92EF92FF920F931F93CF93DF938C01B9
:103FD000C090F502D090F602E090F702F090F8025F
:103FE0008091F1029091F202A091F302B091F4025B
:103FF000C82AD92AEA2AFB2ACFE1D0E0D701C60194
:104000000C2E04C0B695A795979587950A94D2F77C
:1040100080FF07C0BC2EB8018C2F0E94540A019764
:1040200019F4219758F7B12C8B2DDF91CF911F9167
:104030000F91FF90EF90DF90CF90BF900895CF93B6
:10404000DF93EC010E94DE1FBE010E94540ADF9143
:10405000CF9108951F93CF93DF93EB0190917F024F
:10406000992321F0CB010E941F2013C0882349F01F
:10407000CB010E94DE1F182F682FCE010E94811FE6
:1040800004C0CB010E94B11F182FBE01812F0E94D6
:10409000540ADF91CF911F9108958091F90285957F
:1040A0008595859508958091F9028770089590917E
:1040B000F902977081E009F480E0089580911D0372
:1040C000089590911D03892B80931D030895809579
:1040D00090911D03892380931D03089580931D03F0
:1040E000089510921D03089590911C03892B8093CD
:1040F0001C030895809590911C03892380931C03D1
:10410000089510921C03089590911B03892B8093AE
:104110001B030895809590911B03892380931B03B3
:10412000089510921B0308958091FA02089508954E
:104130000C9497209091FA02981721F08093FA023C
:104140000C94982008958091FA02882329F0109207
:10415000FA0280E00C9498200895E0910F01F0910C
:10416000100180911D038083E0910F01F0911001F7
:10417000908180911C03892B8083E0910F01F09145
:104180001001908180911B03892B80838091FA021A
:10419000882381F0E0910F01F09110019081892B2B
:1041A000808380910F01909110010E94D121811193
:1041B0000E94A32080910F01909110010C94D614BD
:1041C00008950C94E02098E0899F90011124262BFB
:1041D0002093F9020E94E31E8091F902859585954E
:1041E00085950C94E1201092F90280E00C94E12076
:1041F0002091F902809582238093F902982F97707D
:1042000079F430E0482F082E000C550B24173507A1
:1042100039F08595859585950E94041F0C94F320AF
:104220000895CF92DF92EF92FF926C01EE24FF246B
:10423000C114D104E104F10421F0C701B60120E169
:1042400001C020E0C72ED82EE92EFF24C114D104CE
:10425000E104F10419F0285FC701B6016B017C018C
:1042600054E0F694E794D794C7945A95D1F7C114C3
:10427000D104E104F10419F02C5FC701B6016B0110
:104280007C0142E0F694E794D794C7944A95D1F71D
:10429000C114D104E104F10419F02E5FC701B60185
:1042A000DC01CB01B695A79597958795892B8A2B2D
:1042B0008B2B09F02F5F822FFF90EF90DF90CF9034
:1042C000089580E090E00E941E2E21E08D3E9E4FDA
:1042D00009F020E0822F089582E090E00C94102EE7
:1042E00083E090E00C94102E84E090E00C94102E6B
:1042F000682F84E090E00C94242EAB01BC018FE089
:1043000090E00C94362EAB01BC0183E190E00C945C
:10431000362E60E070E0CB010C94832160E070E009
:10432000CB010E947D210C9489216DEE7EEF80E00F
:1043300090E00E94422E60E082E090E00E94242EF5
:1043400060E083E090E00E94242E1092F50210922B
:10435000F6021092F7021092F80260E084E090E01A
:104360000E94242E60E085E090E00E94242E60E010
:1043700086E090E00E94242E6FEF87E090E00E949C
:10438000242E40E050E0BA0188E090E00E94362EF2
:1043900060E08DE090E00E94242E0C948E210C941D
:1043A0009521FC01329680911B01882331F0809188
:1043B0008C0387FF02C09EE101C096E080E091502F
:1043C00028F021912223D9F38F5FF9CF08959C0122
:1043D000FC0132969FEF80E04191461789F09F3FA4
:1043E00019F4411101C0982F8F5F8630A9F79F3FC4
:1043F00039F0F901E90FF11D97FDFA9562830895EF
:104400000895FC01329608962081261301C010827F
:104410003196E817F907C1F70895262F26952695B6
:1044200026952E3168F4FC01E20FF11D677021E042
:1044300030E001C0220F6A95EAF78281282B22839F
:104440000895262F2695269526952E3170F4FC0189
:10445000E20FF11D677021E030E001C0220F6A9584
:10446000EAF72095828128232283089520911B0159
:10447000222329F020918C0327FD0C940D220C940B
:10448000E72120911B01222329F020918C0327FD95
:104490000C9421220C94012220911B01FC013296E4
:1044A000222331F080918C0387FF02C08EE101C08E
:1044B00086E0DF011D928A95E9F7089508950C942E
:1044C0005E220E945F2280919203843049F1109213
:1044D0001F0320E488E190E00FB6F894A89580933C
:1044E00060000FBE2093600080E00E948D070E9454
:1044F0005F2283B7817F846083BF83B7816083BF7E
:104500007894889583B78E7F83BF0FB6F894A8956B
:1045100080916000886180936000109260000FBEFF
:1045200008950895CF930E9400040E94A9040E9458
:104530009122C0E08C2F0E94F104811104C0CF5F52
:10454000CE30C1F701C081E0CF91089508950C9459
:10455000A6220E94A81A0E94CA140E948D070C94D9
:10456000A7221F920F920FB60F9211248F939F9341
:10457000AF93BF9380911F03811113C08091880373
:1045800090918903A0918A03B0918B034196A11D5C
:10459000B11D8093880390938903A0938A03B093FD
:1045A0008B03BF91AF919F918F910F900FBE0F9092
:1045B0001F90189582E084BD93E095BD9AEF97BD5A
:1045C00080936E0008952FB7F8948091880390919E
:1045D0008903A0918A03B0918B032FBF0895CF92D6
:1045E000DF92EF92FF920F931F932FB7F8944091B1
:1045F00088035091890360918A0370918B032FBFC8
:104600006A017B01EE24FF248C0120E030E0C0161B
:10461000D106E206F30610F4415051099A01281B15
:10462000390BC9011F910F91FF90EF90DF90CF9050
:10463000089578941F920F920FB60F9211248F93C2
:104640009F93AF93BF938091880390918903A0912A
:104650008A03B0918B030196A11DB11D809388033D
:1046600090938903A0938A03B0938B03BF91AF917A
:104670009F918F910F900FBE0F901F901895F894F7
:1046800081E08093E00080E28093D800E9ECF0E0E4
:1046900010828FE19EE40197F1F700C000001DBA7F
:1046A000109268001CBC10BE1FBA10927A001092C3
:1046B0006E0010926F0010927100109272001082C2
:1046C000ECEBF0E0108214B817B81AB81DB810BAA5
:1046D000108215B818B81BB81EB811BA0C94003F58
:1046E00008950E946121811102C00E94CF210E9481
:1046F0006C2180931E030E94742190E090938D039F
:1047000080938C030E947021682F70E080E090E01D
:104710000C94831E80914003089508950F931F9376
:10472000CF93DF9300D01F92CDB7DEB78C010E94EC
:10473000D325823011F0843021F584E089831B83F6
:104740000A8382E08093E9008FEF9091E800815026
:1047500095FD06C095ED9A95F1F700008111F5CF12
:104760008091E80085FF0DC040E050E063E070E01C
:10477000CE0101960E94F0258091E8008E7780930B
:10478000E8000F900F900F90DF91CF911F910F9144
:104790000895CF93DF9300D01F92CDB7DEB720915D
:1047A0009203243031F523E02983805891099B83BB
:1047B0008A8382E08093E9008FEF9091E800815036
:1047C00095FD06C095ED9A95F1F700008111F5CFA2
:1047D0008091E80085FF0DC040E050E063E070E0AC
:1047E000CE0101960E94F0258091E8008E7780939B
:1047F000E8000F900F900F90DF91CF910895CF9325
:10480000DF93EC010E94D325823011F08430D9F57A
:1048100080911B01882339F080918C0387FF03C0AE
:1048200060E282E002C068E081E08093E9008FEFFF
:104830009091E800815095FD06C095ED9A95F1F7AD
:1048400000008111F5CF8091E80085FF1CC08091A8
:104850001B01811105C040E050E068E070E003C03A
:1048600070E040E050E0CE010E94F0258091E80029
:104870008E778093E80080E2FE01A0E2B3E0019031
:104880000D928A95E1F7DF91CF9108958091910380
:10489000811109C00E9485270E94E2278091E200D1
:1048A00084608093E2000895109291030895089522
:1048B00008950C94A92242E061EC81E00E94FF2659
:1048C00042E261EC82E00C94FF26809194038330F5
:1048D00009F460C030F4813071F0823009F499C07D
:1048E00008958A3009F485C08B3009F46BC0893093
:1048F00009F0A7C020C080919303813A09F0A1C0BC
:104900008091E800877F8093E800809197039091E1
:104910009803892B21F460E280E293E003C060E019
:1049200080E090E070E00E943B268091E8008B7769
:104930008093E800089580919303813209F081C04B
:104940008091970390919803029708F07AC0809124
:10495000E800877F8093E8008091E80082FD05C031
:10496000809192038111F8CF6CC02091F300809167
:10497000F20090E0922B029729F48091F1008B7F56
:10498000813021F48091F100809340038091E80010
:104990008B7753C080919303813A09F052C0809184
:1049A000970390919803892B09F04BC08091E80000
:1049B000877F8093E8008091E80080FFFCCF8091A2
:1049C0001B0136C0809193038132D9F58091970302
:1049D00090919803892BA9F58091E800877F8093B7
:1049E000E8000E9434278091950380931B010C946A
:1049F000A81A80919303813221F58091E800877F86
:104A00008093E8000E9434278091960380934103AD
:104A1000089580919303813AA1F48091E800877F03
:104A20008093E8008091E80080FFFCCF80914103F3
:104A30008093F1008091E8008E778093E8000C94D9
:104A40003427089584B7877F84BF0FB6F894A8955C
:104A500080916000886180936000109260000FBEBA
:104A600080E880936100109261000E9424150E94EA
:104A700085270E94E2278091E20084608093E20013
:104A800078940E94712A0E942A1581E191E00E9487
:104A9000C51480919203853069F40E94612280914F
:104AA00090038823B1F30E949222882391F30E94FD
:104AB000DA25EFCF0E9432150E94BF13EACF0C9483
:104AC0006125292F332723303105C9F064F42130C3
:104AD000310581F02230310509F04CC08BE390E0C4
:104AE00021E935E04BC02132310521F12232310577
:104AF00089F140C082E190E02CEC35E03FC099277D
:104B00008130910571F02CF4892BA1F5EDE8F5E0E9
:104B10000DC08230910541F0039761F5E7E5F5E0BE
:104B200005C0E5E7F5E002C0EDE5F5E0849190E031
:104B30009F0124C06115710541F061307105D1F408
:104B400089E090E02CEB35E019C089E090E023EAA1
:104B500035E014C06115710541F06130710551F403
:104B600081E790E02EED35E009C080E490E02FE48D
:104B700036E004C080E090E020E030E0FA013183CC
:104B8000208308950895CF93C82F0E94C225C09313
:104B90004203CF91089580919203843011F081E017
:104BA000089582E0089580914203811102C00C941F
:104BB000CB25089580E189BD82E189BD09B400FE5D
:104BC000FDCF8091D8008F7D8093D8008091E00048
:104BD00082608093E0008091E00081FDFCCF089529
:104BE000CF92DF92EF92FF920F931F93CF93DF93B9
:104BF000EC018B016A010E945327811133C0C1145B
:104C0000D10439F0F60180819181081B190BC80F7E
:104C1000D91FE12CF12C0115110519F18091E80043
:104C200085FD16C08091E8008E778093E800C1145E
:104C3000D10449F0F60180819181E80EF91EF182DC
:104C4000E08285E00FC00E945327882321F30AC029
:104C500089918093F10001501109FFEFEF1AFF0ACB
:104C6000DACF80E0DF91CF911F910F91FF90EF900D
:104C7000DF90CF9008952091990330919A032617E1
:104C8000370748F06115710539F42091E8002E7757
:104C90002093E80001C0B90140E061157105A9F158
:104CA00020919203222309F443C0253009F442C025
:104CB0002091E80023FD40C02091E80022FD32C091
:104CC0002091E80020FFE9CF4091F3002091F2000D
:104CD00030E0342BFC01CF016115710559F028300B
:104CE000310540F481918093F100615071092F5F8B
:104CF0003F4FF1CF41E02830310509F040E02091ED
:104D0000E8002E772093E800C8CF4111C9CF0AC030
:104D100080919203882361F0853061F08091E800F2
:104D200083FD0AC08091E80082FFF2CF80E0089501
:104D300082E0089583E0089581E008952091990329
:104D400030919A032617370748F06115710539F439
:104D50002091E8002E772093E80001C0B901FC0102
:104D600020E06115710591F180919203882309F487
:104D700040C0853009F43FC08091E80083FD3DC00C
:104D80008091E80082FD2FC08091E80080FFE9CF8C
:104D90002091F3008091F20090E0922B6115710553
:104DA00059F08830910540F424912093F100319618
:104DB000615071090196F2CF21E0089709F020E0D7
:104DC0008091E8008E778093E800CBCF2111CCCF83
:104DD0000AC080919203882361F0853061F0809150
:104DE000E80083FD0AC08091E80082FFF2CF80E0F6
:104DF000089582E0089583E0089581E00895982F52
:104E0000973058F59093E900981739F07091EC00BD
:104E10002091ED005091F00003C0242F762F50E038
:104E200021FF19C03091EB003E7F3093EB003091B1
:104E3000ED003D7F3093ED003091EB003160309319
:104E4000EB007093EC002093ED005093F000209164
:104E5000EE0027FF07C09F5FD3CF8F708093E900DC
:104E600081E0089580E008958091930387FF11C049
:104E70008091E80082FD05C0809192038111F8CFF6
:104E800011C08091E8008B770BC08091920388233A
:104E900049F08091E80080FFF8CF8091E8008E779C
:104EA0008093E80008952091E4003091E50095E6B4
:104EB0004091EC00842F817040FF22C08091E80077
:104EC00080FD1CC080919203882391F0853091F081
:104ED0008091EB0085FD10C04091E4005091E50009
:104EE0004217530729F39A01915011F784E008956E
:104EF00082E0089583E0089581E0089580E00895B8
:104F00004091E80042FFDECF08950E94F3270E94FF
:104F1000FB27E0EEF0E0808181608083E8EDF0E047
:104F200080818F77808319BCA7EDB0E08C918E7F54
:104F30008C9380818F7E80831092910308950F93CC
:104F40001F93CF93DF930E94F3270E94FB27C8EDA6
:104F5000D0E088818F778883888180688883888182
:104F60008F7D888319BC1092920310928E03109249
:104F7000900310928F0300EE10E0F80180818B7F88
:104F8000808388818160888342E060E080E00E94C5
:104F9000FF26E1EEF0E080818E7F8083E2EEF0E09C
:104FA000808181608083808188608083F801808136
:104FB0008E7F8083888180618883DF91CF911F916C
:104FC0000F910895E8EDF0E080818F7E8083E7ED1A
:104FD000F0E080818160808384E082BF81E0809303
:104FE00091030C949F27E8EDF0E080818E7F808311
:104FF0001092E20008951092DA001092E1000895F4
:105000001F920F920FB60F9211242F933F934F933D
:105010005F936F937F938F939F93AF93BF93EF9320
:10502000FF938091E10082FF0BC08091E20082FF3C
:1050300007C08091E1008B7F8093E1000E94702A7D
:105040008091DA0080FF1FC08091D80080FF1BC0D4
:105050008091DA008E7F8093DA008091D90080FF02
:105060000DC080E189BD82E189BD09B400FEFDCF9C
:1050700081E0809392030E94462405C019BC1092DF
:1050800092030E9454248091E10080FF19C0809116
:10509000E20080FF15C08091E2008E7F8093E200E5
:1050A0008091E20080618093E2008091D80080626C
:1050B0008093D80019BC85E0809392030E94582405
:1050C0008091E10084FF30C08091E20084FF2CC019
:1050D00080E189BD82E189BD09B400FEFDCF8091E8
:1050E000D8008F7D8093D8008091E1008F7E8093DF
:1050F000E1008091E2008F7E8093E2008091E200E7
:1051000081608093E20080918E03882311F084E017
:1051100007C08091E30087FD02C081E001C083E009
:10512000809392030E9459248091E10083FF29C05B
:105130008091E20083FF25C08091E100877F80930A
:10514000E10082E08093920310928E038091E1004F
:105150008E7F8093E1008091E2008E7F8093E20059
:105160008091E20080618093E20042E060E080E0B4
:105170000E94FF268091F00088608093F0000E94DA
:105180005724FF91EF91BF91AF919F918F917F91A4
:105190006F915F914F913F912F910F900FBE0F90A4
:1051A0001F9018951F920F920FB60F9211242F93F4
:1051B0003F934F935F936F937F938F939F93AF939F
:1051C000BF93CF93DF93EF93FF93C091E900CF702C
:1051D0008091EC00D82FD17080FDD0E81092E900CA
:1051E0008091F000877F8093F00078940E941629C8
:1051F0001092E9008091F00088608093F000CD2B40
:10520000CF70C093E900FF91EF91DF91CF91BF91F3
:10521000AF919F918F917F916F915F914F913F914E
:105220002F910F900FBE0F901F9018951F93CF9343
:10523000DF93CDB7DEB7AA970FB6F894DEBF0FBEE7
:10524000CDBFE3E9F3E088E08E0F9091F1009193F8
:105250008E13FBCF0E9465248091E80083FF28C154
:105260008091930390919403492F50E04A30510567
:1052700008F01EC1FA01E755FF4F0C94FD2D803850
:1052800021F0823809F014C108C080918F039091F9
:105290009003992389F082600FC0809197038F70EB
:1052A000873008F005C18093E9008091EB0085FB11
:1052B000882780F91092E9009091E800977F9093F9
:1052C000E8008093F1001092F100D0C0282F2D7FCC
:1052D00009F0EEC0882319F0823061F0E9C08091B6
:1052E0009503813009F0E4C0933009F080E08093A9
:1052F00090032EC08091950381112AC0809197035D
:105300008F702FEF280F263008F0D2C08093E9006D
:105310002091EB0020FF1CC0933021F48091EB0022
:10532000806214C09091EB0090619093EB0021E0BB
:1053300030E0A90102C0440F551F8A95E2F740935F
:10534000EA001092EA008091EB0088608093EB0005
:105350001092E9008091E800877F8093E8000E9426
:105360003427A6C08111A4C0109195031F778091A6
:10537000E3008078812B8093E3008091E800877FB1
:105380008093E8000E9434278091E80080FFFCCFE2
:105390008091E30080688093E300111102C082E0F5
:1053A00001C083E08093920383C08058823008F06C
:1053B0007FC080919503909196038C3D53E09507B3
:1053C00079F583E08A838AE289834FB7F894DE0116
:1053D000139620E03EE051E2E32FF0E050935700B7
:1053E000E49120FF03C0E295EF703F5FEF708E2FD6
:1053F00090E0EA3010F0C79601C0C0968D939D935F
:105400002F5F243149F74FBF8091E800877F809359
:10541000E8006AE270E0CE0101960E943B2615C0CA
:105420006091970370919803AE014F5F5F4F0E94A8
:105430005F25BC01892BE1F19091E800977F909363
:10544000E80089819A810E949E268091E8008B77EE
:105450008093E8002DC0803859F58091E800877F5F
:105460008093E80080918E038093F1008091E800A2
:105470008E7773CF81111CC0909195039230C0F448
:105480008091E800877F8093E80090938E030E94CC
:10549000342780918E03811106C08091E30087FD3F
:1054A00002C081E001C084E0809392030E945B24EB
:1054B0008091E80083FF0AC08091E800877F809395
:1054C000E8008091EB0080628093EB00AA960FB613
:1054D000F894DEBF0FBECDBFDF91CF911F9108952D
:1054E0000895CF93809192038823A1F0C091E900A1
:1054F000CF709091EC00892F817090FD80E8C82BCF
:105500001092E9008091E80083FD0E941629CF7077
:10551000C093E900CF9108955058BB27AA270E9455
:10552000A42A0C944F2C0E94412C38F00E94482C45
:1055300020F039F49F3F19F426F40C94172C0EF444
:10554000E095E7FB0C94112CE92F0E94602C58F396
:10555000BA17620773078407950720F079F4A6F558
:105560000C94822C0EF4E0950B2EBA2FA02D0B017B
:10557000B90190010C01CA01A0011124FF27591B98
:1055800099F0593F50F4503E68F11A16F040A22F9E
:10559000232F342F4427585FF3CF4695379527950F
:1055A000A795F0405395C9F77EF41F16BA0B620B0E
:1055B000730B840BBAF09150A1F0FF0FBB1F661F55
:1055C000771F881FC2F70EC0BA0F621F731F841F98
:1055D00048F4879577956795B795F7959E3F08F0BE
:1055E000B0CF9395880F08F09927EE0F9795879580
:1055F00008950E940D2B0C944F2C0E94482C58F0BB
:105600000E94412C40F029F45F3F29F00C94112CAA
:1056100051110C94832C0C94172C0E94602C68F36D
:105620009923B1F3552391F3951B550BBB27AA275B
:1056300062177307840738F09F5F5F4F220F331F95
:10564000441FAA1FA9F335D00E2E3AF0E0E832D05D
:1056500091505040E695001CCAF72BD0FE2F29D060
:10566000660F771F881FBB1F261737074807AB0732
:10567000B0E809F0BB0B802DBF01FF2793585F4FA7
:105680003AF09E3F510578F00C94112C0C94832C29
:105690005F3FE4F3983ED4F3869577956795B79589
:1056A000F7959F5FC9F7880F911D9695879597F994
:1056B0000895E1E0660F771F881FBB1F621773070D
:1056C0008407BA0720F0621B730B840BBA0BEE1F22
:1056D00088F7E095089529F416F00C94112C0C9499
:1056E000822C0C94172C0E94682CA8F39638A0F7F3
:1056F00007F80F92E8942BE33AEA48EB5FE70E9441
:10570000152D0F920F920F924DB75EB70F920E9418
:10571000CB2CE6E6F1E00E941A2C4F915F91EF91BD
:10572000FF91E595EE1FFF1F49F0FE57E068442703
:10573000EE0F441FFA95E1F74195550B0E94952C09
:105740000F9007FE0C94892C08950E94682C88F015
:105750009F5798F0B92F9927B751B0F0E1F0660F35
:10576000771F881F991F1AF0BA95C9F714C0B13076
:1057700091F00E94822CB1E008950C94822C672F46
:10578000782F8827B85F39F0B93FCCF386957795A5
:105790006795B395D9F73EF490958095709561958E
:1057A0007F4F8F4F9F4F0895E89409C097FB3EF4B9
:1057B00090958095709561957F4F8F4F9F4F99235E
:1057C000A9F0F92F96E9BB279395F69587957795DC
:1057D0006795B795F111F8CFFAF4BB0F11F460FF9C
:1057E0001BC06F5F7F4F8F4F9F4F16C0882311F0F4
:1057F00096E911C0772321F09EE8872F762F05C008
:10580000662371F096E8862F70E060E02AF09A95A2
:10581000660F771F881FDAF7880F9695879597F997
:10582000089597F99F6780E870E060E008959FEF22
:1058300080EC0895DF93CF931F930F93FF92EF9225
:10584000DF927B018C01689406C0DA2EEF010E9482
:10585000122DFE01E894A591259135914591559120
:10586000A6F3EF010E94A42AFE019701A801DA9491
:1058700069F7DF90EF90FF900F911F91CF91DF912B
:10588000089500240A9416161706180609060895A6
:1058900000240A9412161306140605060895092E0C
:1058A0000394000C11F4882352F0BB0F40F4BF2B7B
:1058B00011F460FF04C06F5F7F4F8F4F9F4F0895BB
:1058C00057FD9058440F551F59F05F3F71F04795B1
:1058D000880F97FB991F61F09F3F79F08795089596
:1058E000121613061406551FF2CF4695F1DF08C0B5
:1058F000161617061806991FF1CF869571056105D2
:1059000008940895E894BB2766277727CB0197F979
:1059100008959B01AC0160E070E080E89FE30C9487
:10592000F92A0C94112C0C94742D0E94682CD8F335
:105930009923C9F3940F511DA3F39150504094F053
:1059400059F0882332F0660F771F881F915050401E
:10595000C1F79E3F51052CF7880F911D96958795AD
:1059600097F908955F3FACF0983E9CF0BB27869571
:1059700077956795B79508F4B1609395C1F7BB0F1C
:1059800058F711F460FFE8CF6F5F7F4F8F4F9F4F45
:10599000E3CF0C94832CFA01DC01AA0FBB1F9B01FF
:1059A000AC01BF5728F4222733274427507820C062
:1059B000B75190F4AB2F0024469537952795011CDD
:1059C000A395D2F3002071F0220F331F441FB3952B
:1059D000DAF30ED00C948C2A61307105A0E88A07A6
:1059E000B94630F49B01AC01662777278827907869
:1059F000309621F0208331834283538308950E949F
:105A0000122D0C944F2C0E94412C38F00E94482CEF
:105A100020F0952311F00C94112C0C94172C1124C8
:105A20000C94832C0E94602C70F3959FC1F3950F0A
:105A300050E0551F629FF001729FBB27F00DB11D12
:105A4000639FAA27F00DB11DAA1F649F6627B00DA2
:105A5000A11D661F829F2227B00DA11D621F739F8B
:105A6000B00DA11D621F839FA00D611D221F749F99
:105A70003327A00D611D231F849F600D211D822FE0
:105A8000762F6A2F11249F5750409AF0F1F0882307
:105A90004AF0EE0FFF1FBB1F661F771F881F915034
:105AA0005040A9F79E3F510580F00C94112C0C94A6
:105AB000832C5F3FE4F3983ED4F386957795679502
:105AC000B795F795E7959F5FC1F7FE2B880F911D5E
:105AD0009695879597F908959F930E94842D0F902E
